{
  "contractName": "Elections",
  "abi": [
    {
      "inputs": [],
      "payable": false,
      "stateMutability": "nonpayable",
      "type": "constructor"
    },
    {
      "constant": true,
      "inputs": [],
      "name": "chairPerson",
      "outputs": [
        {
          "internalType": "address",
          "name": "",
          "type": "address"
        }
      ],
      "payable": false,
      "stateMutability": "view",
      "type": "function"
    },
    {
      "constant": true,
      "inputs": [
        {
          "internalType": "uint256",
          "name": "",
          "type": "uint256"
        }
      ],
      "name": "elections",
      "outputs": [
        {
          "internalType": "uint256",
          "name": "id",
          "type": "uint256"
        },
        {
          "internalType": "string",
          "name": "name",
          "type": "string"
        },
        {
          "internalType": "uint256",
          "name": "voteCount",
          "type": "uint256"
        },
        {
          "internalType": "uint256",
          "name": "openingTime",
          "type": "uint256"
        },
        {
          "internalType": "uint256",
          "name": "closingTime",
          "type": "uint256"
        },
        {
          "internalType": "uint256",
          "name": "proposalsCount",
          "type": "uint256"
        }
      ],
      "payable": false,
      "stateMutability": "view",
      "type": "function"
    },
    {
      "constant": true,
      "inputs": [],
      "name": "electionsCount",
      "outputs": [
        {
          "internalType": "uint256",
          "name": "",
          "type": "uint256"
        }
      ],
      "payable": false,
      "stateMutability": "view",
      "type": "function"
    },
    {
      "constant": true,
      "inputs": [
        {
          "internalType": "address",
          "name": "",
          "type": "address"
        }
      ],
      "name": "voters",
      "outputs": [
        {
          "internalType": "uint256",
          "name": "rightToVote",
          "type": "uint256"
        },
        {
          "internalType": "bool",
          "name": "voted",
          "type": "bool"
        }
      ],
      "payable": false,
      "stateMutability": "view",
      "type": "function"
    },
    {
      "constant": true,
      "inputs": [],
      "name": "votersCount",
      "outputs": [
        {
          "internalType": "uint256",
          "name": "",
          "type": "uint256"
        }
      ],
      "payable": false,
      "stateMutability": "view",
      "type": "function"
    },
    {
      "constant": false,
      "inputs": [
        {
          "internalType": "uint256",
          "name": "_election",
          "type": "uint256"
        },
        {
          "internalType": "uint256",
          "name": "_proposal",
          "type": "uint256"
        }
      ],
      "name": "vote",
      "outputs": [],
      "payable": false,
      "stateMutability": "nonpayable",
      "type": "function"
    }
  ],
  "bytecode": "0x608060405234801561001057600080fd5b50336000806101000a81548173ffffffffffffffffffffffffffffffffffffffff021916908373ffffffffffffffffffffffffffffffffffffffff16021790555060018060008060009054906101000a900473ffffffffffffffffffffffffffffffffffffffff1673ffffffffffffffffffffffffffffffffffffffff1673ffffffffffffffffffffffffffffffffffffffff168152602001908152602001600020600001819055506000600160008060009054906101000a900473ffffffffffffffffffffffffffffffffffffffff1673ffffffffffffffffffffffffffffffffffffffff1673ffffffffffffffffffffffffffffffffffffffff16815260200190815260200160002060010160006101000a81548160ff0219169083151502179055506002600081548092919060010191905055506104e0806101566000396000f3fe608060405234801561001057600080fd5b50600436106100625760003560e01c80635e6fef011461006757806398c07938146101315780639a74c6951461014f578063a3ec138d1461016d578063b384abef146101d0578063d4d4b5ac14610208575b600080fd5b6100936004803603602081101561007d57600080fd5b8101908080359060200190929190505050610252565b6040518087815260200180602001868152602001858152602001848152602001838152602001828103825287818151815260200191508051906020019080838360005b838110156100f15780820151818401526020810190506100d6565b50505050905090810190601f16801561011e5780820380516001836020036101000a031916815260200191505b5097505050505050505060405180910390f35b610139610326565b6040518082815260200191505060405180910390f35b61015761032c565b6040518082815260200191505060405180910390f35b6101af6004803603602081101561018357600080fd5b81019080803573ffffffffffffffffffffffffffffffffffffffff169060200190929190505050610332565b60405180838152602001821515151581526020019250505060405180910390f35b610206600480360360408110156101e657600080fd5b810190808035906020019092919080359060200190929190505050610363565b005b610210610486565b604051808273ffffffffffffffffffffffffffffffffffffffff1673ffffffffffffffffffffffffffffffffffffffff16815260200191505060405180910390f35b6003602052806000526040600020600091509050806000015490806001018054600181600116156101000203166002900480601f0160208091040260200160405190810160405280929190818152602001828054600181600116156101000203166002900480156103045780601f106102d957610100808354040283529160200191610304565b820191906000526020600020905b8154815290600101906020018083116102e757829003601f168201915b5050505050908060020154908060030154908060040154908060060154905086565b60025481565b60045481565b60016020528060005260406000206000915090508060000154908060010160009054906101000a900460ff16905082565b6000600160003373ffffffffffffffffffffffffffffffffffffffff1673ffffffffffffffffffffffffffffffffffffffff16815260200190815260200160002090508060010160009054906101000a900460ff161561042b576040517f08c379a00000000000000000000000000000000000000000000000000000000081526004018080602001828103825260128152602001807f596f7520616c726561647920766f7465642e000000000000000000000000000081525060200191505060405180910390fd5b60018160010160006101000a81548160ff021916908315150217905550600160036000858152602001908152602001600020600501600084815260200190815260200160002060020160008282540192505081905550505050565b6000809054906101000a900473ffffffffffffffffffffffffffffffffffffffff168156fea265627a7a723158205c35f610fc587c2e1b28f1db9910e7be421189229a8720538b9a625ab9d4834064736f6c63430005100032",
  "source": "pragma solidity ^0.5.1;\r\n\r\ncontract Elections {\r\n\r\n\tstruct Voter {\r\n\t\tuint rightToVote;\r\n\t\tbool voted; //If true, Voter already voted in election\r\n\t}\r\n\r\n\tstruct Election {\r\n\t\tuint id;\r\n\t\tstring name;\r\n\t\tuint voteCount;\r\n\t\tuint256 openingTime;\r\n\t\tuint256 closingTime;\r\n\t\tmapping(uint => Proposal) proposals;\r\n\t\tuint proposalsCount;\r\n\t}\r\n\r\n\tstruct Proposal {\r\n\t\tuint id;\r\n\t\tstring name;\r\n\t\tuint voteCount;\r\n\t}\r\n\r\n\r\n\taddress public chairPerson;\r\n\r\n\tmapping(address => Voter) public voters;\r\n\tuint public votersCount;\r\n\r\n\tmapping(uint => Election) public elections;\r\n\tuint public electionsCount;\r\n\r\n\r\n\tmodifier onlyChairPerson() {\r\n\t\trequire(msg.sender == chairPerson);\r\n\t\t_;\r\n\t}\r\n\r\n\tconstructor() public {\r\n\t\tchairPerson = msg.sender;\r\n\t\tvoters[chairPerson].rightToVote = 1;\r\n\t\tvoters[chairPerson].voted = false;\r\n\t\tvotersCount++;\r\n\t}\r\n\r\n\r\n\r\n\t/**\r\n\t* @dev add a proposal\r\n\t* @param _election index of election to add a proposal\r\n\t* @param _name name of the proposal\r\n\t*/\r\n\tfunction addProposal (uint _election, string memory _name) private {\r\n\t\tuint propCount = elections[_election].proposalsCount;\r\n\t\telections[_election].proposals[propCount] = Proposal(propCount, _name, 0);\r\n\t\telections[_election].proposalsCount ++;\r\n\t}\r\n\r\n\t/**\r\n\t* @dev vote for a proposal\r\n\t* @param _election index of election to vote\r\n\t* @param _proposal index of proposal to vote\r\n\t*/\r\n\tfunction vote(uint _election, uint _proposal) public {\r\n\t\tVoter storage sender = voters[msg.sender];\r\n\t\trequire(!sender.voted, \"You already voted.\");\r\n\r\n\t\tsender.voted = true;\r\n\t\telections[_election].proposals[_proposal].voteCount += 1;\r\n\t}\r\n\r\n\r\n\t/**\r\n\t* @dev Set the opening time of the election\r\n\t* @param _election index of election to set the time\r\n\t* @param _openingTime time to open the election\r\n\t*/\r\n\tfunction setOpeningTime(uint _election, uint256 _openingTime) private onlyChairPerson {\r\n\t\telections[_election].openingTime = _openingTime;\r\n\t}\r\n\r\n\t/**\r\n\t* @dev Set the closing time of the election\r\n\t* @param _election index of election to set the time\r\n\t* @param _closingTime time to close the election\r\n\t*/\r\n\tfunction setClosingTime(uint _election, uint256 _closingTime) private onlyChairPerson {\r\n\t\telections[_election].closingTime = _closingTime;\r\n\t}\r\n}",
  "sourcePath": "C:/Users/ricar/Documents/Projects/e-voting/contracts/Elections.sol",
  "compiler": {
    "name": "solc",
    "version": "0.5.16+commit.9c3226ce.Emscripten.clang"
  },
  "schemaVersion": "3.3.1",
  "updatedAt": "2020-11-01T13:59:53.178Z",
  "networkType": "ethereum",
  "devdoc": {
    "methods": {
      "vote(uint256,uint256)": {
        "details": "vote for a proposal",
        "params": {
          "_election": "index of election to vote",
          "_proposal": "index of proposal to vote"
        }
      }
    }
  },
  "userdoc": {
    "methods": {}
  }
}